{
    "_format": "hh-sol-artifact-1",
    "contractName": "MedicalDatabase",
    "sourceName": "contracts/unchainMedicalDatabase.sol",
    "abi": [
        {
            "anonymous": false,
            "inputs": [
                {
                    "indexed": false,
                    "internalType": "string",
                    "name": "name",
                    "type": "string"
                },
                {
                    "indexed": false,
                    "internalType": "string",
                    "name": "bloodType",
                    "type": "string"
                },
                {
                    "indexed": false,
                    "internalType": "uint256",
                    "name": "registerDate",
                    "type": "uint256"
                },
                {
                    "indexed": false,
                    "internalType": "uint256",
                    "name": "updateDate",
                    "type": "uint256"
                },
                {
                    "indexed": true,
                    "internalType": "address",
                    "name": "userAddress",
                    "type": "address"
                },
                {
                    "indexed": false,
                    "internalType": "address[]",
                    "name": "doctors",
                    "type": "address[]"
                }
            ],
            "name": "NewMedicalData",
            "type": "event"
        },
        {
            "inputs": [
                {
                    "internalType": "address",
                    "name": "_patientAddress",
                    "type": "address"
                },
                {
                    "internalType": "address",
                    "name": "_doctorAddress",
                    "type": "address"
                }
            ],
            "name": "addDoctor",
            "outputs": [],
            "stateMutability": "nonpayable",
            "type": "function"
        },
        {
            "inputs": [
                {
                    "internalType": "string",
                    "name": "_name",
                    "type": "string"
                },
                {
                    "internalType": "string",
                    "name": "_bloodType",
                    "type": "string"
                }
            ],
            "name": "addMedicalData",
            "outputs": [],
            "stateMutability": "nonpayable",
            "type": "function"
        },
        {
            "inputs": [
                {
                    "internalType": "address",
                    "name": "_patientAddress",
                    "type": "address"
                },
                {
                    "internalType": "string",
                    "name": "_name",
                    "type": "string"
                },
                {
                    "internalType": "string",
                    "name": "_bloodType",
                    "type": "string"
                }
            ],
            "name": "editMedicalData",
            "outputs": [],
            "stateMutability": "nonpayable",
            "type": "function"
        },
        {
            "inputs": [
                {
                    "internalType": "address",
                    "name": "_patientAddress",
                    "type": "address"
                }
            ],
            "name": "emitPatientData",
            "outputs": [],
            "stateMutability": "nonpayable",
            "type": "function"
        },
        {
            "inputs": [
                {
                    "internalType": "address",
                    "name": "_patientAddress",
                    "type": "address"
                }
            ],
            "name": "getPatientData",
            "outputs": [
                {
                    "internalType": "string",
                    "name": "",
                    "type": "string"
                },
                {
                    "internalType": "string",
                    "name": "",
                    "type": "string"
                },
                {
                    "internalType": "uint256",
                    "name": "",
                    "type": "uint256"
                },
                {
                    "internalType": "uint256",
                    "name": "",
                    "type": "uint256"
                },
                {
                    "internalType": "address",
                    "name": "",
                    "type": "address"
                },
                {
                    "internalType": "address[]",
                    "name": "",
                    "type": "address[]"
                }
            ],
            "stateMutability": "view",
            "type": "function"
        },
        {
            "inputs": [
                {
                    "internalType": "uint256",
                    "name": "",
                    "type": "uint256"
                }
            ],
            "name": "patientData",
            "outputs": [
                {
                    "internalType": "string",
                    "name": "name",
                    "type": "string"
                },
                {
                    "internalType": "string",
                    "name": "bloodType",
                    "type": "string"
                },
                {
                    "internalType": "uint256",
                    "name": "registerDate",
                    "type": "uint256"
                },
                {
                    "internalType": "uint256",
                    "name": "updateDate",
                    "type": "uint256"
                },
                {
                    "internalType": "address",
                    "name": "userAddress",
                    "type": "address"
                }
            ],
            "stateMutability": "view",
            "type": "function"
        },
        {
            "inputs": [
                {
                    "internalType": "address",
                    "name": "",
                    "type": "address"
                }
            ],
            "name": "patientDataIndex",
            "outputs": [
                {
                    "internalType": "uint256",
                    "name": "",
                    "type": "uint256"
                }
            ],
            "stateMutability": "view",
            "type": "function"
        }
    ],
    "bytecode": "0x60806040526000805534801561001457600080fd5b50611d20806100246000396000f3fe608060405234801561001057600080fd5b506004361061007d5760003560e01c806348e818521161005b57806348e81852146100ee578063b3119bcf14610123578063c04889b214610153578063c6058daf1461016f5761007d565b80630b89d985146100825780630c62bc60146100b65780632f53cc55146100d2575b600080fd5b61009c600480360381019061009791906111ed565b61018b565b6040516100ad959493929190611303565b60405180910390f35b6100d060048036038101906100cb9190611390565b610301565b005b6100ec60048036038101906100e791906114f2565b610595565b005b61010860048036038101906101039190611390565b61083d565b60405161011a9695949392919061163b565b60405180910390f35b61013d60048036038101906101389190611390565b610c3d565b60405161014a91906116b1565b60405180910390f35b61016d600480360381019061016891906116cc565b610c55565b005b6101896004803603810190610184919061170c565b610f19565b005b6001818154811061019b57600080fd5b90600052602060002090600702016000915090508060000180546101be906117b3565b80601f01602080910402602001604051908101604052809291908181526020018280546101ea906117b3565b80156102375780601f1061020c57610100808354040283529160200191610237565b820191906000526020600020905b81548152906001019060200180831161021a57829003601f168201915b50505050509080600101805461024c906117b3565b80601f0160208091040260200160405190810160405280929190818152602001828054610278906117b3565b80156102c55780601f1061029a576101008083540402835291602001916102c5565b820191906000526020600020905b8154815290600101906020018083116102a857829003601f168201915b5050505050908060020154908060030154908060040160009054906101000a900473ffffffffffffffffffffffffffffffffffffffff16905085565b6000600260008373ffffffffffffffffffffffffffffffffffffffff1673ffffffffffffffffffffffffffffffffffffffff16815260200190815260200160002054905060018181548110610359576103586117e5565b5b906000526020600020906007020160040160009054906101000a900473ffffffffffffffffffffffffffffffffffffffff1673ffffffffffffffffffffffffffffffffffffffff163373ffffffffffffffffffffffffffffffffffffffff161480610437575060011515600182815481106103d7576103d66117e5565b5b906000526020600020906007020160050160003373ffffffffffffffffffffffffffffffffffffffff1673ffffffffffffffffffffffffffffffffffffffff16815260200190815260200160002060009054906101000a900460ff161515145b61044057600080fd5b60018181548110610454576104536117e5565b5b906000526020600020906007020160040160009054906101000a900473ffffffffffffffffffffffffffffffffffffffff1673ffffffffffffffffffffffffffffffffffffffff167fc213ce4ca3e731837ab69f6e1b5483f2aca6cf809cdac4549075f5e81f99aca7600183815481106104d1576104d06117e5565b5b9060005260206000209060070201600001600184815481106104f6576104f56117e5565b5b90600052602060002090600702016001016001858154811061051b5761051a6117e5565b5b90600052602060002090600702016002015460018681548110610541576105406117e5565b5b90600052602060002090600702016003015460018781548110610567576105666117e5565b5b9060005260206000209060070201600601604051610589959493929190611995565b60405180910390a25050565b826000600260008373ffffffffffffffffffffffffffffffffffffffff1673ffffffffffffffffffffffffffffffffffffffff168152602001908152602001600020549050600181815481106105ee576105ed6117e5565b5b906000526020600020906007020160040160009054906101000a900473ffffffffffffffffffffffffffffffffffffffff1673ffffffffffffffffffffffffffffffffffffffff163373ffffffffffffffffffffffffffffffffffffffff161461068d576040517f08c379a000000000000000000000000000000000000000000000000000000000815260040161068490611a6f565b60405180910390fd5b6000600260008773ffffffffffffffffffffffffffffffffffffffff1673ffffffffffffffffffffffffffffffffffffffff168152602001908152602001600020549050600181815481106106e5576106e46117e5565b5b90600052602060002090600702016000016040516020016107069190611b19565b604051602081830303815290604052805190602001208560405160200161072d9190611b61565b604051602081830303815290604052805190602001201461078357846001828154811061075d5761075c6117e5565b5b90600052602060002090600702016000019080519060200190610781929190611100565b505b60018181548110610797576107966117e5565b5b90600052602060002090600702016001016040516020016107b89190611b19565b60405160208183030381529060405280519060200120846040516020016107df9190611b61565b604051602081830303815290604052805190602001201461083557836001828154811061080f5761080e6117e5565b5b90600052602060002090600702016001019080519060200190610833929190611100565b505b505050505050565b606080600080600060606000600260008973ffffffffffffffffffffffffffffffffffffffff1673ffffffffffffffffffffffffffffffffffffffff1681526020019081526020016000205490506001818154811061089f5761089e6117e5565b5b906000526020600020906007020160040160009054906101000a900473ffffffffffffffffffffffffffffffffffffffff1673ffffffffffffffffffffffffffffffffffffffff163373ffffffffffffffffffffffffffffffffffffffff16148061097d5750600115156001828154811061091d5761091c6117e5565b5b906000526020600020906007020160050160003373ffffffffffffffffffffffffffffffffffffffff1673ffffffffffffffffffffffffffffffffffffffff16815260200190815260200160002060009054906101000a900460ff161515145b61098657600080fd5b6001818154811061099a576109996117e5565b5b9060005260206000209060070201600001600182815481106109bf576109be6117e5565b5b9060005260206000209060070201600101600183815481106109e4576109e36117e5565b5b90600052602060002090600702016002015460018481548110610a0a57610a096117e5565b5b90600052602060002090600702016003015460018581548110610a3057610a2f6117e5565b5b906000526020600020906007020160040160009054906101000a900473ffffffffffffffffffffffffffffffffffffffff1660018681548110610a7657610a756117e5565b5b9060005260206000209060070201600601858054610a93906117b3565b80601f0160208091040260200160405190810160405280929190818152602001828054610abf906117b3565b8015610b0c5780601f10610ae157610100808354040283529160200191610b0c565b820191906000526020600020905b815481529060010190602001808311610aef57829003601f168201915b50505050509550848054610b1f906117b3565b80601f0160208091040260200160405190810160405280929190818152602001828054610b4b906117b3565b8015610b985780601f10610b6d57610100808354040283529160200191610b98565b820191906000526020600020905b815481529060010190602001808311610b7b57829003601f168201915b5050505050945080805480602002602001604051908101604052809291908181526020018280548015610c2057602002820191906000526020600020905b8160009054906101000a900473ffffffffffffffffffffffffffffffffffffffff1673ffffffffffffffffffffffffffffffffffffffff1681526020019060010190808311610bd6575b505050505090509650965096509650965096505091939550919395565b60026020528060005260406000206000915090505481565b816000600260008373ffffffffffffffffffffffffffffffffffffffff1673ffffffffffffffffffffffffffffffffffffffff16815260200190815260200160002054905060018181548110610cae57610cad6117e5565b5b906000526020600020906007020160040160009054906101000a900473ffffffffffffffffffffffffffffffffffffffff1673ffffffffffffffffffffffffffffffffffffffff163373ffffffffffffffffffffffffffffffffffffffff1614610d4d576040517f08c379a0000000000000000000000000000000000000000000000000000000008152600401610d4490611a6f565b60405180910390fd5b6000600260008673ffffffffffffffffffffffffffffffffffffffff1673ffffffffffffffffffffffffffffffffffffffff1681526020019081526020016000205490506001151560018281548110610da957610da86117e5565b5b906000526020600020906007020160050160008673ffffffffffffffffffffffffffffffffffffffff1673ffffffffffffffffffffffffffffffffffffffff16815260200190815260200160002060009054906101000a900460ff1615151415610e1257600080fd5b6001808281548110610e2757610e266117e5565b5b906000526020600020906007020160050160008673ffffffffffffffffffffffffffffffffffffffff1673ffffffffffffffffffffffffffffffffffffffff16815260200190815260200160002060006101000a81548160ff02191690831515021790555060018181548110610ea057610e9f6117e5565b5b9060005260206000209060070201600601849080600181540180825580915050600190039060005260206000200160009091909190916101000a81548173ffffffffffffffffffffffffffffffffffffffff021916908373ffffffffffffffffffffffffffffffffffffffff1602179055505050505050565b6000600260003373ffffffffffffffffffffffffffffffffffffffff1673ffffffffffffffffffffffffffffffffffffffff1681526020019081526020016000205414610f9b576040517f08c379a0000000000000000000000000000000000000000000000000000000008152600401610f9290611bea565b60405180910390fd5b600060018081600181540180825580915050039060005260206000209060070201905082816000019080519060200190610fd6929190611100565b5081816001019080519060200190610fef929190611100565b50428160020181905550428160030181905550338160040160006101000a81548173ffffffffffffffffffffffffffffffffffffffff021916908373ffffffffffffffffffffffffffffffffffffffff160217905550600054600260003373ffffffffffffffffffffffffffffffffffffffff1673ffffffffffffffffffffffffffffffffffffffff1681526020019081526020016000208190555060008081548092919061109d90611c39565b919050555060603373ffffffffffffffffffffffffffffffffffffffff167fc213ce4ca3e731837ab69f6e1b5483f2aca6cf809cdac4549075f5e81f99aca785854242866040516110f2959493929190611c82565b60405180910390a250505050565b82805461110c906117b3565b90600052602060002090601f01602090048101928261112e5760008555611175565b82601f1061114757805160ff1916838001178555611175565b82800160010185558215611175579182015b82811115611174578251825591602001919060010190611159565b5b5090506111829190611186565b5090565b5b8082111561119f576000816000905550600101611187565b5090565b6000604051905090565b600080fd5b600080fd5b6000819050919050565b6111ca816111b7565b81146111d557600080fd5b50565b6000813590506111e7816111c1565b92915050565b600060208284031215611203576112026111ad565b5b6000611211848285016111d8565b91505092915050565b600081519050919050565b600082825260208201905092915050565b60005b83811015611254578082015181840152602081019050611239565b83811115611263576000848401525b50505050565b6000601f19601f8301169050919050565b60006112858261121a565b61128f8185611225565b935061129f818560208601611236565b6112a881611269565b840191505092915050565b6112bc816111b7565b82525050565b600073ffffffffffffffffffffffffffffffffffffffff82169050919050565b60006112ed826112c2565b9050919050565b6112fd816112e2565b82525050565b600060a082019050818103600083015261131d818861127a565b90508181036020830152611331818761127a565b905061134060408301866112b3565b61134d60608301856112b3565b61135a60808301846112f4565b9695505050505050565b61136d816112e2565b811461137857600080fd5b50565b60008135905061138a81611364565b92915050565b6000602082840312156113a6576113a56111ad565b5b60006113b48482850161137b565b91505092915050565b600080fd5b600080fd5b7f4e487b7100000000000000000000000000000000000000000000000000000000600052604160045260246000fd5b6113ff82611269565b810181811067ffffffffffffffff8211171561141e5761141d6113c7565b5b80604052505050565b60006114316111a3565b905061143d82826113f6565b919050565b600067ffffffffffffffff82111561145d5761145c6113c7565b5b61146682611269565b9050602081019050919050565b82818337600083830152505050565b600061149561149084611442565b611427565b9050828152602081018484840111156114b1576114b06113c2565b5b6114bc848285611473565b509392505050565b600082601f8301126114d9576114d86113bd565b5b81356114e9848260208601611482565b91505092915050565b60008060006060848603121561150b5761150a6111ad565b5b60006115198682870161137b565b935050602084013567ffffffffffffffff81111561153a576115396111b2565b5b611546868287016114c4565b925050604084013567ffffffffffffffff811115611567576115666111b2565b5b611573868287016114c4565b9150509250925092565b600081519050919050565b600082825260208201905092915050565b6000819050602082019050919050565b6115b2816112e2565b82525050565b60006115c483836115a9565b60208301905092915050565b6000602082019050919050565b60006115e88261157d565b6115f28185611588565b93506115fd83611599565b8060005b8381101561162e57815161161588826115b8565b9750611620836115d0565b925050600181019050611601565b5085935050505092915050565b600060c0820190508181036000830152611655818961127a565b90508181036020830152611669818861127a565b905061167860408301876112b3565b61168560608301866112b3565b61169260808301856112f4565b81810360a08301526116a481846115dd565b9050979650505050505050565b60006020820190506116c660008301846112b3565b92915050565b600080604083850312156116e3576116e26111ad565b5b60006116f18582860161137b565b92505060206117028582860161137b565b9150509250929050565b60008060408385031215611723576117226111ad565b5b600083013567ffffffffffffffff811115611741576117406111b2565b5b61174d858286016114c4565b925050602083013567ffffffffffffffff81111561176e5761176d6111b2565b5b61177a858286016114c4565b9150509250929050565b7f4e487b7100000000000000000000000000000000000000000000000000000000600052602260045260246000fd5b600060028204905060018216806117cb57607f821691505b602082108114156117df576117de611784565b5b50919050565b7f4e487b7100000000000000000000000000000000000000000000000000000000600052603260045260246000fd5b60008190508160005260206000209050919050565b60008154611836816117b3565b6118408186611225565b9450600182166000811461185b576001811461186d576118a0565b60ff19831686526020860193506118a0565b61187685611814565b60005b8381101561189857815481890152600182019150602081019050611879565b808801955050505b50505092915050565b600081549050919050565b60008190508160005260206000209050919050565b60008160001c9050919050565b600073ffffffffffffffffffffffffffffffffffffffff82169050919050565b6000611909611904836118c9565b6118d6565b9050919050565b600061191c82546118f6565b9050919050565b6000600182019050919050565b600061193b826118a9565b6119458185611588565b9350611950836118b4565b8060005b838110156119885761196582611910565b61196f88826115b8565b975061197a83611923565b925050600181019050611954565b5085935050505092915050565b600060a08201905081810360008301526119af8188611829565b905081810360208301526119c38187611829565b90506119d260408301866112b3565b6119df60608301856112b3565b81810360808301526119f18184611930565b90509695505050505050565b7f596f7520617265206e6f7420617574686f72697a656420746f2061636365737360008201527f206d65646963616c20646174612e000000000000000000000000000000000000602082015250565b6000611a59602e83611225565b9150611a64826119fd565b604082019050919050565b60006020820190508181036000830152611a8881611a4c565b9050919050565b600081905092915050565b60008154611aa7816117b3565b611ab18186611a8f565b94506001821660008114611acc5760018114611add57611b10565b60ff19831686528186019350611b10565b611ae685611814565b60005b83811015611b0857815481890152600182019150602081019050611ae9565b838801955050505b50505092915050565b6000611b258284611a9a565b915081905092915050565b6000611b3b8261121a565b611b458185611a8f565b9350611b55818560208601611236565b80840191505092915050565b6000611b6d8284611b30565b915081905092915050565b7f596f7572206d65646963616c206461746120697320616c72656164792072656760008201527f697374657265642e000000000000000000000000000000000000000000000000602082015250565b6000611bd4602883611225565b9150611bdf82611b78565b604082019050919050565b60006020820190508181036000830152611c0381611bc7565b9050919050565b7f4e487b7100000000000000000000000000000000000000000000000000000000600052601160045260246000fd5b6000611c44826111b7565b91507fffffffffffffffffffffffffffffffffffffffffffffffffffffffffffffffff821415611c7757611c76611c0a565b5b600182019050919050565b600060a0820190508181036000830152611c9c818861127a565b90508181036020830152611cb0818761127a565b9050611cbf60408301866112b3565b611ccc60608301856112b3565b8181036080830152611cde81846115dd565b9050969550505050505056fea2646970667358221220e14c724f17f05c074f2df9dceea111e176d2e2179c73f5faf2d308d08e8fde0764736f6c63430008090033",
    "linkReferences": {},
    "deployedLinkReferences": {}
}