{
  "_format": "hh-sol-artifact-1",
  "contractName": "MedicalDatabase",
  "sourceName": "contracts/unchainMedicalDatabase.sol",
  "abi": [
    {
      "inputs": [
        {
          "internalType": "address",
          "name": "_patientAddress",
          "type": "address"
        },
        {
          "internalType": "address",
          "name": "_doctorAddress",
          "type": "address"
        }
      ],
      "name": "addDoctor",
      "outputs": [],
      "stateMutability": "nonpayable",
      "type": "function"
    },
    {
      "inputs": [
        {
          "internalType": "string",
          "name": "_name",
          "type": "string"
        },
        {
          "internalType": "string",
          "name": "_bloodType",
          "type": "string"
        }
      ],
      "name": "addMedicalData",
      "outputs": [],
      "stateMutability": "nonpayable",
      "type": "function"
    },
    {
      "inputs": [
        {
          "internalType": "address",
          "name": "_patientAddress",
          "type": "address"
        },
        {
          "internalType": "string",
          "name": "_name",
          "type": "string"
        },
        {
          "internalType": "string",
          "name": "_bloodType",
          "type": "string"
        }
      ],
      "name": "editMedicalData",
      "outputs": [],
      "stateMutability": "nonpayable",
      "type": "function"
    },
    {
      "inputs": [
        {
          "internalType": "address",
          "name": "_patientAddress",
          "type": "address"
        }
      ],
      "name": "getPatientData",
      "outputs": [
        {
          "internalType": "string",
          "name": "",
          "type": "string"
        },
        {
          "internalType": "string",
          "name": "",
          "type": "string"
        },
        {
          "internalType": "uint256",
          "name": "",
          "type": "uint256"
        },
        {
          "internalType": "uint256",
          "name": "",
          "type": "uint256"
        },
        {
          "internalType": "address",
          "name": "",
          "type": "address"
        },
        {
          "internalType": "address[]",
          "name": "",
          "type": "address[]"
        }
      ],
      "stateMutability": "view",
      "type": "function"
    },
    {
      "inputs": [
        {
          "internalType": "uint256",
          "name": "",
          "type": "uint256"
        }
      ],
      "name": "patientData",
      "outputs": [
        {
          "internalType": "string",
          "name": "name",
          "type": "string"
        },
        {
          "internalType": "string",
          "name": "bloodType",
          "type": "string"
        },
        {
          "internalType": "uint256",
          "name": "registerDate",
          "type": "uint256"
        },
        {
          "internalType": "uint256",
          "name": "updateDate",
          "type": "uint256"
        },
        {
          "internalType": "address",
          "name": "userAddress",
          "type": "address"
        }
      ],
      "stateMutability": "view",
      "type": "function"
    },
    {
      "inputs": [
        {
          "internalType": "address",
          "name": "",
          "type": "address"
        }
      ],
      "name": "patientDataIndex",
      "outputs": [
        {
          "internalType": "uint256",
          "name": "",
          "type": "uint256"
        }
      ],
      "stateMutability": "view",
      "type": "function"
    }
  ],
  "bytecode": "0x60806040526000805534801561001457600080fd5b50611962806100246000396000f3fe608060405234801561001057600080fd5b50600436106100625760003560e01c80630b89d985146100675780632f53cc551461009b57806348e81852146100b7578063b3119bcf146100ec578063c04889b21461011c578063c6058daf14610138575b600080fd5b610081600480360381019061007c9190610e09565b610154565b604051610092959493929190610f16565b60405180910390f35b6100b560048036038101906100b091906110d8565b6102ca565b005b6100d160048036038101906100cc9190611163565b610564565b6040516100e39695949392919061124e565b60405180910390f35b61010660048036038101906101019190611163565b610964565b60405161011391906112c4565b60405180910390f35b610136600480360381019061013191906112df565b61097c565b005b610152600480360381019061014d919061131f565b610c3f565b005b6001818154811061016457600080fd5b9060005260206000209060070201600091509050806000018054610187906113c6565b80601f01602080910402602001604051908101604052809291908181526020018280546101b3906113c6565b80156102005780601f106101d557610100808354040283529160200191610200565b820191906000526020600020905b8154815290600101906020018083116101e357829003601f168201915b505050505090806001018054610215906113c6565b80601f0160208091040260200160405190810160405280929190818152602001828054610241906113c6565b801561028e5780601f106102635761010080835404028352916020019161028e565b820191906000526020600020905b81548152906001019060200180831161027157829003601f168201915b5050505050908060020154908060030154908060040160009054906101000a900473ffffffffffffffffffffffffffffffffffffffff16905085565b826000600260008373ffffffffffffffffffffffffffffffffffffffff1673ffffffffffffffffffffffffffffffffffffffff16815260200190815260200160002054905060018181548110610323576103226113f7565b5b906000526020600020906007020160040160009054906101000a900473ffffffffffffffffffffffffffffffffffffffff1673ffffffffffffffffffffffffffffffffffffffff163373ffffffffffffffffffffffffffffffffffffffff16146103c2576040517f08c379a00000000000000000000000000000000000000000000000000000000081526004016103b990611498565b60405180910390fd5b6000600260008773ffffffffffffffffffffffffffffffffffffffff1673ffffffffffffffffffffffffffffffffffffffff1681526020019081526020016000205490506001818154811061041a576104196113f7565b5b906000526020600020906007020160000160405160200161043b919061155b565b604051602081830303815290604052805190602001208560405160200161046291906115a3565b60405160208183030381529060405280519060200120146104b1578460018281548110610492576104916113f7565b5b906000526020600020906007020160000190816104af9190611751565b505b600181815481106104c5576104c46113f7565b5b90600052602060002090600702016001016040516020016104e6919061155b565b604051602081830303815290604052805190602001208460405160200161050d91906115a3565b604051602081830303815290604052805190602001201461055c57836001828154811061053d5761053c6113f7565b5b9060005260206000209060070201600101908161055a9190611751565b505b505050505050565b606080600080600060606000600260008973ffffffffffffffffffffffffffffffffffffffff1673ffffffffffffffffffffffffffffffffffffffff168152602001908152602001600020549050600181815481106105c6576105c56113f7565b5b906000526020600020906007020160040160009054906101000a900473ffffffffffffffffffffffffffffffffffffffff1673ffffffffffffffffffffffffffffffffffffffff163373ffffffffffffffffffffffffffffffffffffffff1614806106a457506001151560018281548110610644576106436113f7565b5b906000526020600020906007020160050160003373ffffffffffffffffffffffffffffffffffffffff1673ffffffffffffffffffffffffffffffffffffffff16815260200190815260200160002060009054906101000a900460ff161515145b6106ad57600080fd5b600181815481106106c1576106c06113f7565b5b9060005260206000209060070201600001600182815481106106e6576106e56113f7565b5b90600052602060002090600702016001016001838154811061070b5761070a6113f7565b5b90600052602060002090600702016002015460018481548110610731576107306113f7565b5b90600052602060002090600702016003015460018581548110610757576107566113f7565b5b906000526020600020906007020160040160009054906101000a900473ffffffffffffffffffffffffffffffffffffffff166001868154811061079d5761079c6113f7565b5b90600052602060002090600702016006018580546107ba906113c6565b80601f01602080910402602001604051908101604052809291908181526020018280546107e6906113c6565b80156108335780601f1061080857610100808354040283529160200191610833565b820191906000526020600020905b81548152906001019060200180831161081657829003601f168201915b50505050509550848054610846906113c6565b80601f0160208091040260200160405190810160405280929190818152602001828054610872906113c6565b80156108bf5780601f10610894576101008083540402835291602001916108bf565b820191906000526020600020905b8154815290600101906020018083116108a257829003601f168201915b505050505094508080548060200260200160405190810160405280929190818152602001828054801561094757602002820191906000526020600020905b8160009054906101000a900473ffffffffffffffffffffffffffffffffffffffff1673ffffffffffffffffffffffffffffffffffffffff16815260200190600101908083116108fd575b505050505090509650965096509650965096505091939550919395565b60026020528060005260406000206000915090505481565b816000600260008373ffffffffffffffffffffffffffffffffffffffff1673ffffffffffffffffffffffffffffffffffffffff168152602001908152602001600020549050600181815481106109d5576109d46113f7565b5b906000526020600020906007020160040160009054906101000a900473ffffffffffffffffffffffffffffffffffffffff1673ffffffffffffffffffffffffffffffffffffffff163373ffffffffffffffffffffffffffffffffffffffff1614610a74576040517f08c379a0000000000000000000000000000000000000000000000000000000008152600401610a6b90611498565b60405180910390fd5b6000600260008673ffffffffffffffffffffffffffffffffffffffff1673ffffffffffffffffffffffffffffffffffffffff1681526020019081526020016000205490506001151560018281548110610ad057610acf6113f7565b5b906000526020600020906007020160050160008673ffffffffffffffffffffffffffffffffffffffff1673ffffffffffffffffffffffffffffffffffffffff16815260200190815260200160002060009054906101000a900460ff16151503610b3857600080fd5b6001808281548110610b4d57610b4c6113f7565b5b906000526020600020906007020160050160008673ffffffffffffffffffffffffffffffffffffffff1673ffffffffffffffffffffffffffffffffffffffff16815260200190815260200160002060006101000a81548160ff02191690831515021790555060018181548110610bc657610bc56113f7565b5b9060005260206000209060070201600601849080600181540180825580915050600190039060005260206000200160009091909190916101000a81548173ffffffffffffffffffffffffffffffffffffffff021916908373ffffffffffffffffffffffffffffffffffffffff1602179055505050505050565b6000600260003373ffffffffffffffffffffffffffffffffffffffff1673ffffffffffffffffffffffffffffffffffffffff1681526020019081526020016000205414610cc1576040517f08c379a0000000000000000000000000000000000000000000000000000000008152600401610cb890611895565b60405180910390fd5b600060018081600181540180825580915050039060005260206000209060070201905082816000019081610cf59190611751565b5081816001019081610d079190611751565b50428160020181905550428160030181905550338160040160006101000a81548173ffffffffffffffffffffffffffffffffffffffff021916908373ffffffffffffffffffffffffffffffffffffffff160217905550600054600260003373ffffffffffffffffffffffffffffffffffffffff1673ffffffffffffffffffffffffffffffffffffffff16815260200190815260200160002081905550600080815480929190610db5906118e4565b9190505550505050565b6000604051905090565b600080fd5b600080fd5b6000819050919050565b610de681610dd3565b8114610df157600080fd5b50565b600081359050610e0381610ddd565b92915050565b600060208284031215610e1f57610e1e610dc9565b5b6000610e2d84828501610df4565b91505092915050565b600081519050919050565b600082825260208201905092915050565b60005b83811015610e70578082015181840152602081019050610e55565b60008484015250505050565b6000601f19601f8301169050919050565b6000610e9882610e36565b610ea28185610e41565b9350610eb2818560208601610e52565b610ebb81610e7c565b840191505092915050565b610ecf81610dd3565b82525050565b600073ffffffffffffffffffffffffffffffffffffffff82169050919050565b6000610f0082610ed5565b9050919050565b610f1081610ef5565b82525050565b600060a0820190508181036000830152610f308188610e8d565b90508181036020830152610f448187610e8d565b9050610f536040830186610ec6565b610f606060830185610ec6565b610f6d6080830184610f07565b9695505050505050565b610f8081610ef5565b8114610f8b57600080fd5b50565b600081359050610f9d81610f77565b92915050565b600080fd5b600080fd5b7f4e487b7100000000000000000000000000000000000000000000000000000000600052604160045260246000fd5b610fe582610e7c565b810181811067ffffffffffffffff8211171561100457611003610fad565b5b80604052505050565b6000611017610dbf565b90506110238282610fdc565b919050565b600067ffffffffffffffff82111561104357611042610fad565b5b61104c82610e7c565b9050602081019050919050565b82818337600083830152505050565b600061107b61107684611028565b61100d565b90508281526020810184848401111561109757611096610fa8565b5b6110a2848285611059565b509392505050565b600082601f8301126110bf576110be610fa3565b5b81356110cf848260208601611068565b91505092915050565b6000806000606084860312156110f1576110f0610dc9565b5b60006110ff86828701610f8e565b935050602084013567ffffffffffffffff8111156111205761111f610dce565b5b61112c868287016110aa565b925050604084013567ffffffffffffffff81111561114d5761114c610dce565b5b611159868287016110aa565b9150509250925092565b60006020828403121561117957611178610dc9565b5b600061118784828501610f8e565b91505092915050565b600081519050919050565b600082825260208201905092915050565b6000819050602082019050919050565b6111c581610ef5565b82525050565b60006111d783836111bc565b60208301905092915050565b6000602082019050919050565b60006111fb82611190565b611205818561119b565b9350611210836111ac565b8060005b8381101561124157815161122888826111cb565b9750611233836111e3565b925050600181019050611214565b5085935050505092915050565b600060c08201905081810360008301526112688189610e8d565b9050818103602083015261127c8188610e8d565b905061128b6040830187610ec6565b6112986060830186610ec6565b6112a56080830185610f07565b81810360a08301526112b781846111f0565b9050979650505050505050565b60006020820190506112d96000830184610ec6565b92915050565b600080604083850312156112f6576112f5610dc9565b5b600061130485828601610f8e565b925050602061131585828601610f8e565b9150509250929050565b6000806040838503121561133657611335610dc9565b5b600083013567ffffffffffffffff81111561135457611353610dce565b5b611360858286016110aa565b925050602083013567ffffffffffffffff81111561138157611380610dce565b5b61138d858286016110aa565b9150509250929050565b7f4e487b7100000000000000000000000000000000000000000000000000000000600052602260045260246000fd5b600060028204905060018216806113de57607f821691505b6020821081036113f1576113f0611397565b5b50919050565b7f4e487b7100000000000000000000000000000000000000000000000000000000600052603260045260246000fd5b7f596f7520617265206e6f7420617574686f72697a656420746f2061636365737360008201527f206d65646963616c20646174612e000000000000000000000000000000000000602082015250565b6000611482602e83610e41565b915061148d82611426565b604082019050919050565b600060208201905081810360008301526114b181611475565b9050919050565b600081905092915050565b60008190508160005260206000209050919050565b600081546114e5816113c6565b6114ef81866114b8565b9450600182166000811461150a576001811461151f57611552565b60ff1983168652811515820286019350611552565b611528856114c3565b60005b8381101561154a5781548189015260018201915060208101905061152b565b838801955050505b50505092915050565b600061156782846114d8565b915081905092915050565b600061157d82610e36565b61158781856114b8565b9350611597818560208601610e52565b80840191505092915050565b60006115af8284611572565b915081905092915050565b60006020601f8301049050919050565b600082821b905092915050565b6000600883026116077fffffffffffffffffffffffffffffffffffffffffffffffffffffffffffffffff826115ca565b61161186836115ca565b95508019841693508086168417925050509392505050565b6000819050919050565b600061164e61164961164484610dd3565b611629565b610dd3565b9050919050565b6000819050919050565b61166883611633565b61167c61167482611655565b8484546115d7565b825550505050565b600090565b611691611684565b61169c81848461165f565b505050565b5b818110156116c0576116b5600082611689565b6001810190506116a2565b5050565b601f821115611705576116d6816114c3565b6116df846115ba565b810160208510156116ee578190505b6117026116fa856115ba565b8301826116a1565b50505b505050565b600082821c905092915050565b60006117286000198460080261170a565b1980831691505092915050565b60006117418383611717565b9150826002028217905092915050565b61175a82610e36565b67ffffffffffffffff81111561177357611772610fad565b5b61177d82546113c6565b6117888282856116c4565b600060209050601f8311600181146117bb57600084156117a9578287015190505b6117b38582611735565b86555061181b565b601f1984166117c9866114c3565b60005b828110156117f1578489015182556001820191506020850194506020810190506117cc565b8683101561180e578489015161180a601f891682611717565b8355505b6001600288020188555050505b505050505050565b7f596f7572206d65646963616c206461746120697320616c72656164792072656760008201527f697374657265642e000000000000000000000000000000000000000000000000602082015250565b600061187f602883610e41565b915061188a82611823565b604082019050919050565b600060208201905081810360008301526118ae81611872565b9050919050565b7f4e487b7100000000000000000000000000000000000000000000000000000000600052601160045260246000fd5b60006118ef82610dd3565b91507fffffffffffffffffffffffffffffffffffffffffffffffffffffffffffffffff8203611921576119206118b5565b5b60018201905091905056fea2646970667358221220fae7f4dbca955d2b861a67fefee1b826302c4db66dc630edcb7d638184fe87be64736f6c63430008110033",
  "linkReferences": {},
  "deployedLinkReferences": {}
}